:020000040800F2
:1000000000180020090A0008590A0008590A0008C7
:1000100000000000000000000000000000000000E0
:10002000000000000000000000000000590A000865
:100030000000000000000000590A000879020008D2
:10004000590A000800000000590A0008590A00086F
:10005000590A0008590A0008590A0008590A0008F4
:1000600000000000590A0008590A0008590A00084F
:10007000590A0008590A0008590A0008000000003F
:10008000590A00080000000000000000590A00089A
:1000900000000000590A0008590A0008590A00081F
:1000A00000000000590A000800000000590A00087A
:1000B000590A0008000000000000000000000000D5
:1000C0000448054B10B5834203D0044B002B00D0ED
:1000D000984710BD0400002004000020000000002C
:1000E00006480749091A8B10C90FC91810B54910DD
:1000F00003D0044B002B00D0984710BD0400002013
:10010000040000200000000010B5074C2378002BED
:1001100009D1FFF7D5FF054B002B02D0044800E0C2
:1001200000BF0123237010BD040000200000000068
:10013000C0000008054B10B5002B03D0044905484A
:1001400000E000BFFFF7CCFF10BDC046000000007C
:1001500008000020C0000008F0B5C42503000B4CC7
:100160000B492668AD001F008A691740134201D071
:10017000012008E08A69100028402A4204D1226840
:10018000921B042AEFD9F0BD3800FCE724000020C0
:1001900000540040F7B51F4D0400AB691B0401D5A6
:1001A0000020FEBDCC239B00EB611B4B02206B604B
:1001B000FFF7D2FF0028F3D023784020AB62FFF78F
:1001C000CBFF0028ECD06678144B721C120413434A
:1001D00004206B60FFF7C0FF0028E1D06B6AA7190D
:1001E0000193BC420DD12020FFF7B6FF0028D7D0E5
:1001F0002023EB616B461879801B43425841C0B203
:10020000CFE70420FFF7A8FF01340028C8D06B6AAD
:100210006370E6E7005400404220010042240002DF
:10022000124B134A30B51A600122824080249A6230
:10023000104AA40115681868204205D00424986863
:1002400020439860156809E01068401B0428F2D923
:10025000002030BD1068401B0428F9D818682042DF
:10026000F8D01B6C01200B80F3E7C046002401404E
:100270001C20000024000020024A13680133136090
:100280007047C04624000020F0B50726B64C93B056
:1002900000F092FB636BB54A33436363636BA02347
:1002A000DB059A618022596812010A435A60196875
:1002B000AF4A00251140AF4AAF4F0A431A60196A8E
:1002C000AE4A11408022D2020A43AD491A620A683E
:1002D000120112090A60C021AA4A50680143516004
:1002E0001068A9490840A02109020143CC201160EF
:1002F000116AC0050902090A014311628022216CBA
:1003000012020A43FA212264A04ABD62FA62F03A5C
:10031000FF3A7D63BA61673A3A627A6180323A6045
:100320009B4A7D639A619B4B890000931D809A4B89
:100330001B681800019300F09BFB802301385B04CD
:1003400098420BD2954A96495060C0200B6A00062D
:100350001B021B0A03430B6295601660914B019AC6
:100360009A4229D1F822904B52011B6A13409342C2
:1003700022D18023226C5B031343802223648B4BA6
:10038000D2051A6180228A4D52059A6029682A682E
:1003900091420BD08022996812060A439A6028681D
:1003A00084490A68002A03DB2A680CE030BFEEE7C4
:1003B0002A68121A042AF4D9A0238022DB059A6144
:1003C00030BFFDE730BF29688A42FBD007225A615F
:1003D00080227949D203086802430A6001221A6028
:1003E00099681143996028681968114200D1A0E00A
:1003F0008023E16B9B030B43E363636D6F49704E96
:100400000B40636500236F490B606F4B0B616F4BB3
:100410000A6033606E4B336002237360C533B36090
:10042000F468002CFCD16B4B1222336021000DA824
:1004300000F0AAFB0E22210009A800F0A5FB2B6802
:1004400001932B68143B039330BF594C039A2368E4
:100450009B1A132B1DD9604B604A0493002304A8F8
:10046000059306920793FFF795FE002867D10020B9
:100470000123544A1060136009AB1870236803937A
:10048000002806D1A023424ADB0578639A61009BCD
:1004900018800024630006AAD118E0B2FFF7C0FE5E
:1004A000002800D09EE000230293029A04AB1A7643
:1004B0003F4B019A1B6802939D1A9342C4D00DAC26
:1004C000052D00D8F4E00621200000F02DF9A0222F
:1004D000637CD205002B00D0F9E08021C9037B6347
:1004E0009161009A13802379012B00D0ECE01F3337
:1004F000A022D2059361237C80215A425341384A7D
:100500005B421340802212059B18A022D205936102
:100510002378072B00D0F0E0033B9161012B00D939
:10052000EDE080235B0193612A4B3360029B0193D2
:100530008AE72968091A042900D855E73CE706A884
:10054000FFF728FE002892D00A2304AA9B18598896
:100550001A8804AB9888090411435A880004104390
:1005600000F0ECF888E7C046001002400008E010F8
:1005700000003CFCFF56400100200040FFFFF0FF60
:100580000008005000040050FF0FFFFF570200005A
:1005900000084000200000200000002010E000E0E3
:1005A00000ED00E0001BB7000020024000240140E5
:1005B000240000200824014008270140FFCFFFFF4E
:1005C0000030004000540040231B4210CCCC0000FF
:1005D00055550000AAAA00003406000035040000AA
:1005E000000800F80134042C00D053E70A2008A9C1
:1005F000FFF716FE0290002800D154E704AB198AD9
:10060000002900D14FE73F4B3F481A88531E9BB249
:10061000834200D947E73D48504300F029FA3C4B5C
:100620000400C218FA235B009A4200D93BE704ABEE
:100630001889FA239B005843364A904203D836491A
:1006400000F016FA83B209ADEB8004AB5889324949
:10065000604300F00DFAFA239B0058432F4900F045
:1006600007FA04AB288198892B49604300F000FA0F
:100670000C212B4BFF31584300F0FAF904AB688191
:10068000D8892549604300F0F3F9A023DB051A69F6
:100690000123A88118002349120A1A406A700A69C6
:1006A000920B90430A69A870D20B9343EB70FCE65F
:1006B00000230193200009A900F070F8019B013389
:1006C00001939D42F6D102E780239B0310E740236C
:1006D0009361009B1B88022B05D8009A5B1913803D
:1006E00000237B6307E79620FA21E38980005843C3
:1006F000890000F0BDF97863FDE609040CE780236A
:100700005B0510E76A75FF1FFDFF0000B80B0000D6
:1007100048F4FFFF2B3C3D00FF0F00005E1100007E
:10072000F304000000080050072303700023417009
:10073000038143818381C381038270473222030096
:100740000003800D424370B5124C0020A2421FD11D
:100750000A229C05A40D54430F4DAC4218D9E02643
:10076000F605314214D0C02636059B0F0E403343A8
:1007700083420DD1FA260B039B0D5343B600B342BF
:1007800006D38905890D4A43AA4201D994424041C2
:1007900070BDC046983A0000DB05000070B5CA780D
:1007A000040088785300DBB2002803D00123002A1C
:1007B00000D00233A2789A4212D00022A370E280C5
:1007C00022897448824201D8013222810A78002AA3
:1007D0000DD1227022816281A281E281228270BDCC
:1007E000E2881D2A01D80132E9E7E370E8E72278C0
:1007F000002A05D1012323742380002323811DE0D7
:10080000072A1DD1002B18D1E378002B15D1CB88F6
:10081000142B12D80B79002B0FD08B895E4A2D3BFD
:10082000FF3B9BB2934208D8FA22638952000133FE
:100830009BB263819342DDD2D1E700236381CEE78F
:10084000012A33D1F4322089FF329042C7D30A798A
:10085000002A06D051484A891218514892B2824261
:1008600004D901212000FFF75FFFB8E74A78002A8A
:1008700001D10221F6E70222227000222281628148
:100880008A8945482D3AFF3A92B2824211D84348AC
:100890004A891218424892B28242E2D84A78002A23
:1008A000E7D0E578032D06D10521DBE70A79002A98
:1008B000E6D10421D6E7627C002A0CD0AF22088959
:1008C0005200904206D3A289013292B2632A02D921
:1008D0000321C7E700222078A2810238042800D92A
:1008E0007DE700F0BBF80314214651002B43A4D14F
:1008F000CA88142AA1D8FA2162894900013292B229
:1009000062818A4200D26AE70322227076E76B1E78
:10091000012B00D963E7CB88142B02D90223237063
:100920006BE704232571FAE722799A4201D0052367
:10093000F5E7CB88142B03D80023E38163744EE7DB
:10094000FA20F52180005843164B8900C01800F0AA
:100950008FF8E38982B2991C914203DA88B20123AD
:10096000E081EBE7023280B29342F8DD023B98B2BD
:10097000F5E7E389022B02D9023BE3812FE700234D
:100980000622E3816374C0E7FA232289DB009A42DE
:10099000C4D224E75FEA0000DC050000A4D4FFFF16
:1009A000A4060000E0B1FFFF8022024B12059A600E
:1009B0007047C04600ED00E038220F498B681340B5
:1009C000182B13D0202B14D00C480200082B03D076
:1009D0000B689B045B0FDA408B6809491B051B0FF2
:1009E0009B005B580748DA4002607047FA22D20148
:1009F000F2E780221202EFE700100240006CDC02F6
:100A0000E00B0008000000200D488546FFF7CCFFF2
:100A1000002103E00B4B5B58435004310A480B4B59
:100A200042189A42F6D30A4A02E0002313600432C5
:100A3000084B9A42F9D300F0AFF8FFF725FCFEE728
:100A400000180020400C00080000002004000020D6
:100A50000400002028000020FEE7000002B47146D8
:100A600049084900095C49008E4402BC7047C046F1
:100A7000002243088B4274D303098B425FD3030ADD
:100A80008B4244D3030B8B4228D3030C8B420DD3F0
:100A9000FF22090212BA030C8B4202D3121209027E
:100AA00065D0030B8B4219D300E0090AC30B8B42BC
:100AB00001D3CB03C01A5241830B8B4201D38B036A
:100AC000C01A5241430B8B4201D34B03C01A52410F
:100AD000030B8B4201D30B03C01A5241C30A8B4252
:100AE00001D3CB02C01A5241830A8B4201D38B023D
:100AF000C01A5241430A8B4201D34B02C01A5241E1
:100B0000030A8B4201D30B02C01A5241CDD2C30952
:100B10008B4201D3CB01C01A524183098B4201D3CE
:100B20008B01C01A524143098B4201D34B01C01AB9
:100B3000524103098B4201D30B01C01A5241C30831
:100B40008B4201D3CB00C01A524183088B4201D3A0
:100B50008B00C01A524143088B4201D34B00C01A8C
:100B60005241411A00D20146524110467047FFE7F8
:100B700001B5002000F006F802BDC0460029F7D0FC
:100B800076E770477047C04603008218934200D151
:100B9000704719700133F9E770B500260C4C0D4D04
:100BA000641BA410A64209D1002600F039F80A4CB3
:100BB0000A4D641BA410A64205D170BDB300EB58CA
:100BC00098470136EEE7B300EB5898470136F2E755
:100BD000380C0008380C00083C0C0008380C0008E1
:100BE0000000000000000000000000000000000005
:100BF00000000000000000000000000000000000F5
:100C000001000000020000000300000004000000DA
:100C100006000000070000000800000009000000B6
:100C2000F8B5C046F8BC08BC9E467047F8B5C0464B
:080C3000F8BC08BC9E467047A9
:040C3800350100087A
:040C3C0009010008A2
:040C4000001BB700DE
:0400000508000A09DC
:00000001FF
